:040000006AEFB1F002
:10000800FF62FF62FF62FF62FF62E262FF62FF62FD
:10001800FF62FF62FF62FF62FF62FF62FF62FF62D0
:10002800FF62FF62FF62FF62FF62FF62FF62FF62C0
:10003800FF62FF62FF62FF62FF62FF62FF62FF62B0
:10004800FF62FF62FF62FF62FF62FF62FF62FF62A0
:10005800FF62FF62FF62FF62FF62FF62FF62FF6290
:10006800FF62FF62FF62FF62FF62FF62FF62FF6280
:10007800FF62FF62FF62FF624200F262FF62FF629C
:10008800FF62FF62FF62FF62FF62FF62FF62FF6260
:10009800FF62FF62FF62FF624200FF62FF62FF626F
:1000A800FF626862FF62FF62FF62FF62FF62FF62D7
:1000B800FF62FF62FF62FF62FF62FF62FF62FF6230
:1000C800FF62FF62FF62FF62FF62FF62FF62FF6220
:1000D800FF62FF62FF62FF62FF62FF62FF62FF6210
:1000E8004200FB62FF62FF62FF62FF62FF62FF6223
:1000F800FF62EA62FF62FF62FF62FF62FF62FF6205
:02010800FF00F6
:10FFCE00000D0A454D555A38302B4D455A5A38308A
:10FFDE0038352025322E32664D487A0D0A00494EAC
:10FFEE0046004E414E00696E66006E616E006C6694
:02FFFE00000001
:020000040001F9
:10000000C34000C3F2290000C3F930000000000023
:10001000C3EA300000000000C3F43000000000001C
:10002000C900000000000000C9000000000000003E
:10003000C3A7290000000000C33B2A000000000005
:10004000C34300F331009F21008022009F22079FBD
:1000500022059F224B9F224D9F3E4932099FAF218F
:100060000C9F061A772305C2640021C09E22209FA0
:1000700021008022229F06083E2E21609F772305C3
:10008000C27D00AF77061421379FAF772305C28B5F
:10009000003E4932319F3E4E32309F2E0065223263
:1000A0009FAF32369F21008022399F223D9F2241FF
:1000B0009F22459F22499F7E32389F323C9F32408B
:1000C0009F32449F32489F210D2ECD2328AF3269A5
:1000D0009F214A2ECD2328CD8828CD3B29B7CACDD4
:1000E00000FE41CAC11AFE44CA6707FE47CA01158D
:1000F000FE53CAAC15FE4CCA2C16FE50CA1B17FE86
:1001000052CA0618FE23CA2A01FE42CAB702FE548A
:10011000CA8803FE3FCA210121672ECD2328C3CD03
:100120000021402CCD2328C3CD0023CD3B29B7CAC5
:100130001801FE4CCA5E01CD4002DA180179FE11A9
:10014000D21801B7CA18013D1716005F217C0119AA
:100150005E2356EB5E23567AB3CA1801EBE9217C85
:10016000015E235623E5D5E17E23B6E1CA7901136A
:1001700013EBCD2328EBC36101C3CD009C01B0017B
:10018000C601E8010C0220023602360236023602AF
:100190003602360236023602360236020032312E7E
:1001A000204742415349432053746172740D0A0041
:1001B0000332322E20474241534943205265737423
:1001C0006172740D0A00005B332E2050616C6F2049
:1001D000416C746F2054696E792042415349432029
:1001E00053746172740D0A00035B342E2050616CED
:1001F0006F20416C746F2054696E792042415349DD
:100200004320526573746172740D0A000054352ED8
:100210002047414D4538302053746172740D0A00F7
:100220000354362E2047414D4538302052657374B3
:100230006172740D0A000000D5E5CD4002E1D1C91C
:10024000AF474FCD3B29B7C8CD6702D8F5329F9F46
:10025000F1CD7802D83A9F9FE516005F6069194496
:100260004DE1D823C34302B7CA7602FE30D8FE3A26
:10027000D27602D630C937C9E5D557C579814F78CE
:10028000884779814F788847E109E5C179814F78BE
:1002900088477AD1E1C93A3F9FB7CAA5022A419F50
:1002A0003E31CD6E033A439FB7CACD002A459F3EEB
:1002B00032CD6E03C3CD0023CD3B29B7CA960201D0
:1002C0003F9FFE31CAD70201439FFE32CAD702FECA
:1002D00043CA1E03C31801E5F52A9E9FE5F1E122FA
:1002E0009E9FE123CD3B29B7CA4703FE2CC21801CC
:1002F00023CD3B29C5CD4C29E1DA1801CD0503DA20
:100300001801C3CD007AFE80DA1C03FEE0D21C0384
:100310003E0177231A7723732372B7C937C923CDD8
:100320003B29B7CA3B03013F9FFE31CA3603014355
:100330009FFE32C21801AF02C3CD00AF013F9F0242
:1003400001439F02C3CD000AB7CACD00F52A9E9F84
:10035000E5F1E1229E9F2A419FFE31CA61032A45B1
:100360009FCD6E03C3CD0042502800293A00E5F529
:10037000216703CD2328F1CDF930216B03CD23284C
:10038000E1CD2D28CD7128C9E52E00260022329F0F
:100390002A229F22349FAF32369FE123CD3B29CDC5
:1003A0004C29D25504CD3B297EB7CA8404FE2CCA01
:1003B0006904FE50CA0804FE4DC2180123CD3B2932
:1003C00021FA03FE49CADA03210004FE53CADA0304
:1003D000B7C218013A319FC3C00332319FE521EB08
:1003E00003CD2328E1CD2328C3CD00544D206D6FCC
:1003F00064653A3C43414C4C2000494E3E0D0A0096
:10040000534B49503E0D0A0023CD3B29B7C2160479
:100410003A309FC31F04FE4FC2180123CD3B292150
:100420004A04FE4ECA2F04214F04FE46C218013270
:10043000309FE5214004CD2328E1CD2328C3CD0002
:100440005450206D6F64653A20004F4E0D0A004FE6
:1004500046460D0A00EB22349FEBCD3B29B7CA84F8
:1004600004FE2CCA6904C3180123CD3B29B7CA185E
:1004700001FE2DCA8A04CD4002DA180160692232D9
:100480009FC3A004010100C37C0423CD3B29FE319E
:10049000C2180123CD3B29B7C218013E0132369F55
:1004A0002A349F7E010800216F06CDA430C2C30408
:1004B0000E01CD3306DAEA050E02CD1106DAEA05A1
:1004C000C3E705010500217706CDA430C2E8040E7C
:1004D000012A349FCDFE05CD4106DAEA050E02CD94
:1004E0001706DAEA05C3E705010800217C06CDA45A
:1004F00030C2F9040E01C30F05010800218406CDA6
:10050000A430C220050E013A319FFE53CA1705CD13
:100510002706DAEA050E02CD1D06DAEA05C3E7056D
:10052000FEC9C230050E01CD3306DAEA05C3E70580
:10053000010800218C06CDA430C247050E01CD1163
:1005400006DAEA05C3E705FEEDC26305237EFE4534
:10055000CA5805FE4DC263050E01CD3306DAEA0521
:10056000C3E7052A349F7EFEE9C27A052A129F0E50
:1005700001CD4106DAEA05C3E705FEDDC28C05239D
:100580007EFEE9C28C052A1C9FC36F052A349F7E1C
:10059000FEFDC2A205237EFEE9C2A2052A1E9FC35C
:1005A0006F052A349F7EFE18C2B9050E01CDFE05E7
:1005B000CD4106DAEA05C3E705FEC3C2C9050E014F
:1005C000CD2706DAEA05C3E705FECDC294060E0183
:1005D0003A319FFE53CAC905CD2706DAEA05C3E7BB
:1005E00005CD1D06DAEA05C3481521F405CD2328FB
:1005F000C3CD00FF416472204552520D0A00235EB4
:100600002316FFC5477BE68078C1C20F0616001986
:10061000C92A349FC322062A349FC321062A349F45
:10062000232323CD4106C92A349F235E2356EBCDD5
:100630004106C9EB2A209FEB1A6F131A67CD4106BA
:10064000C97CFE80DA6D06FE9FD26D0679FE01C27E
:10065000600611379F1222399F7E32389FC36B0686
:10066000113B9F12223D9F7E323C9FAFC937C9C0CC
:10067000C8D0D8E0E8F0F81020283038C2CAD2DA62
:10068000E2EAF2FAC4CCD4DCE4ECF4FCC7CFD7DF66
:10069000E7EFF7FF011200214307CDA430CA1E0780
:1006A000010800215507CDA430CA29072A349FFE2E
:1006B000CBCA1E07FEDDCAC606FEEDCAF006FEFD69
:1006C000CAC606C31307237EFECBCA3407FE21CA5F
:1006D0003407FE22CA3407FE2ACA3407FE36CA345B
:1006E00007010A00215D07CDA430CA1E07C32907F0
:1006F000237EFE43CA3407FE4BCA3407FE53CA3476
:1007000007FE5BCA3407FE73CA3407FE7BCA340790
:10071000C31E070E01CD1106DAEA05C3E7050E0177
:10072000CD1706DAEA05C3E7050E01CD1D06DAEAA4
:1007300005C3E7050E012A349F23CD2006DAEA051A
:10074000C3E705060E161E262E363EC6CEDED6E6BC
:10075000EEF6FEDBD30111213122322A3A091929A2
:1007600039232BE5E1E3F9237EFE49CA7D08CD3B21
:1007700029CD4C29DA7F07EB22009FEBC39007E5D8
:100780002A009F0180000922029FE17EB7CABE07AE
:10079000CD3B297EFE2CCAA707B7C21801218000D5
:1007A0001922029FC3BE0723CD3B29CD4C29DA185D
:1007B00001CD3B29B7C2180113EB22029FEBCDC438
:1007C00007C3CD002A009F3EF0A56FAF32049FE51E
:1007D000CDF307E101100009CDF430C2ED073A0472
:1007E0009FFE02DACF072A029F22009FC922009FA4
:1007F000C3EA30CD2D28E5216F2ECD2328E11174D9
:100800009F0610CD330805C2030821722ECD232880
:1008100021749F06107E23FE20DA2708FE7FD22750
:1008200008CDF930C32C083E2ECDF93005C215088D
:10083000C371283E20CDF9303A049FB7C25E083A12
:10084000009FBDC24D083A019FBCCA59083E20CD49
:10085000F930CDF930122313C93E0132049F3A0416
:100860009FFE01C24D087E12CD322823133A029F0B
:10087000BDC03A039FBCC03E0232049FC923CD3B9A
:1008800029CD4C29D29D08CD3B297EB7C2A508268B
:10089000002E0A7D326C9F226A9FC3D808EB226D1E
:1008A0009FEBC38708FE2CC2180123CD3B29FE53C2
:1008B000C2C9083E01326C9F23CD4002DA1801E51F
:1008C0006069226A9FE1C3D808CD4C29DA1801EB90
:1008D000226A9FEBAF326C9FCDF430CAE408CDEAB8
:1008E00030C3CD00CD7D09CD3D0921749FCD232896
:1008F0003A6C9FB7C208092A6D9F444D2A6A9FCD62
:10090000B430D2D808C3CD002A6A9F2B226A9F7CBC
:10091000B5C2D808C3CD00226D9FD5CD7D09CD3D90
:1009200009D121749F012A00F57E1223130B79B09F
:10093000C22909F1EB2A6D9FEB3A739FC921749F7D
:10094000EB2A6D9FEBCD9011CD2D12CD2D1206040B
:100950003A739F4F1A13D55FCD9811CD2D12D10543
:10096000CA74090DC25409CD2D12CD2D12CD2D12F0
:1009700005C26709CD2D12EB226D9FEBC93E0132F6
:10098000739F110013CDB611218F9FCDE8112A6DF1
:100990009F7E010D00214412CDA430C2B009215325
:1009A00014CD2E11C3B611E6380F0F0F4F0600C934
:1009B000FE0ACAD209FE1ACAE009FE02CAE609FE08
:1009C00012CAEF09FEF9C2F509119A30CD1112C30E
:1009D000E211115930D5CD0E12D1CDF611C3E81167
:1009E000116030C3D509115930CDFF11C3D4111195
:1009F0006030C3E909FE40DA9F0AFE80D2290AFE70
:100A000076C20A0A110313C3B611CDA709CD2B1163
:100A1000218F9FCD1112EB2A6D9FEB1AE6074F062F
:100A200000E5CD2B11E1C3E511FE88D2370ACDB325
:100A300011CD0E12C3160AFE90D2480A110C13CD26
:100A4000B611CD0E12C3160AFE98D2560A11101313
:100A5000CDB611C3160AFEA0D2670A111413CDB683
:100A600011CD0E12C3160AFEA8D2750A111813CDA5
:100A7000B611C3160AFEB0D2830A111C13CDB611EB
:100A8000C3160AFEB8D2910A112013CDB611C316AF
:100A90000AFEC0D2260B112313CDB611C3160A01CC
:100AA0000800215112CDA430C2B90AF5112613CD88
:100AB000B611F1CDA709C3210A010800215912CDB1
:100AC000A430C2D00AF5112A13CDB611F1C3B30A6E
:100AD000010400216112CDA430C2EB0A112613CD0E
:100AE000B611214314CD2211C3E811010400216580
:100AF00012CDA430C2060B112A13CDB61121431416
:100B0000CD2211C3E811010400216912CDA430C225
:100B10005C0BCDB311116730CD1112E5214314CD1B
:100B20002E11E1C3E511010400216D12CDA430C2E4
:100B3000410B112E13CDB611214B14CD2211C3E858
:100B400011010400217112CDA430C25C0B113213CB
:100B5000CDB611214B14CD2211C3E811FE08CA7A7B
:100B60000BFEE3CA890BFEEBC2920B116030CD1174
:100B700012CDE211113713C3B61111E112CD1112CA
:100B800011E412CDE511C3740B119A30CDFF11C3DE
:100B9000710BFEE9C2A60B11EC12CDB61111673034
:100BA000CDF311C3E811010800216F06CDA430C2B6
:100BB000C10B11E812CDB611212B14CD2211C3E8BF
:100BC00011010800218C06CDA430C2E10B11FC12EA
:100BD000CDB611792F878787E6385F218F9FC33B7A
:100BE00011F53E0232739FF1010800214307CDA4A5
:100BF00030C20B0CCDA709CD2B11CD1112EB2A6DF4
:100C00009FEB131A5FCD8011C3E811010A00214B3D
:100C100007CDA430C2650CC5216D14CD2E11CDB603
:100C200011C179FE01CA3F0CB7CA480CFE07DA347D
:100C30000CCD0E12EB2A6D9FEB131A5FC33B11CD47
:100C40000E12CD540CC3E811218F9FCD540CCD3C16
:100C500012C3D411CD2312EB2A6D9FEB131A5FCD73
:100C60008011C32812FE10C2700C11F212C3780C4E
:100C7000FE18C2810C11EF12CDB611218F9FC35FF8
:100C800011010400217806CDA430C29F0C11EF128F
:100C9000CDB611213B14CD2211CD3C12C35F11F50D
:100CA0003E0332739FF1010400215507CDA430C2E9
:100CB000C10C218114CD2E11CD1112CDED0CC341EB
:100CC00011FE22CADB0CFE32CAE10CFE2ACAF70C66
:100CD000FE3AC2060DCD0E12C3FD0CCDE70CC3E2E9
:100CE00011CDE70CC3D411CDED0CC34711E52A6D2E
:100CF0009F235E2356E1C9116730CD1112CDED0C53
:100D0000CD5611C3E811FEC3C2140D11EC12CDB6BD
:100D100011C3BB0CFECDC2220D11F712CDB611C30B
:100D2000BB0C010800217C06CDA430C2400D11ECA3
:100D300012CDB611212B14CD2211CD3C12C3BB0C08
:100D4000010800218406CDA430C2520D11F712C350
:100D5000310D2A6D9F23F53E0232739FF1FECBC207
:100D6000180E7E218F9FFE08DAA10DFE10DAAA0D63
:100D7000FE18DAB30DFE20DABC0DFE28DAC50DFE32
:100D800030DACE0DFE38DAF20DFE40DAD70DFE80F5
:100D9000DAE00DFEC0DAE90DCDF80D11F613C3B699
:100DA00011CDFD0D117113C3B611CDFD0D117513CC
:100DB000C3B611CDFD0D117913C3B611CDFD0D11C3
:100DC0007C13C3B611CDFD0D117F13C3B611CDFD3C
:100DD0000D118313C3B611CDFD0D118713C3B611C9
:100DE000CDF80D118B13C3B611CDF80D118F13C3B0
:100DF000B61111FA13C3B611F5CD0A0EF1E6074F7D
:100E00000600E5CD2B11E1C3E511E6380F0F0F47C2
:100E10003E30B07723C33C12FEDDC2D30F119430B5
:100E2000EB226F9FEB119D14EB22719FEB7EFEE393
:100E3000CA770EFEE9CA640EFEF9CA860E010400E6
:100E4000215D07CDA430CA8F0E010400216107CDBA
:100E5000A430C2A50E219514CD2E11CDB611218F2F
:100E60009FC3DA11EB2A6F9FEBD511EC12CDB611AF
:100E7000D1CDF311C3E811113713CDB611119A304A
:100E8000CDFF11C3DA11119A30CD1112C3DA11CD91
:100E9000B311EB2A6F9FEBCD1112E52A719FCD2E76
:100EA00011E1C3E511F53E0332739FF1010E0021FC
:100EB0007512CDA430CAE70EFE86CA140FFE8ECA84
:100EC000200FFE9ECA260F010700218312CDA430F9
:100ED000C22C0F21AD14CD2E11CDB611EB2A6F9F70
:100EE000EB218F9FC3F01079FE07D2000FEB2A6F22
:100EF0009FEBCDE710E521BB14CD2E11E1C3E51129
:100F0000D6074F21BB14CD2E11CD1112EB2A6F9FA6
:100F1000EBC3F010110813CDB611CD0E12C30C0F98
:100F2000110C13C3170F111413C3170FF53E04321E
:100F3000739FF1FE21CA530FFE22CA610FFE2ACA17
:100F40006A0FFE36C27B0FEB2A6F9FEBCDE7105A7C
:100F5000C33B11EB2A6F9FEBCD1112CD1711C3418B
:100F600011CD1711CD4711C3DA11EB2A6F9FEBCDCD
:100F70001112CD1711CD5611C3E811FECBC2F20DDF
:100F8000CD17117A010700218A12CDA430C29C0F1F
:100F900021F314CD2E11CDB611C3DC0E01180021A2
:100FA0009112CDA430C2F20DFE80DAC10FFEC0DA7C
:100FB000CA0F11F613CDB611218F9FCD0A0EC30CA7
:100FC0000F118B13CDB611C3B80F118F13CDB611FE
:100FD000C3B80FFEEDC2D4107E01380021A912CD96
:100FE000A430C2F20D79FE06DAB510FE1BDAA710A6
:100FF000FE1EDA9410CA7310FE1FCA7C10FE20CAAF
:101000008510FE21CA8E10FE26DA6110FE2ADA4A09
:1010100010FE31DA2F10116E13CDB61179D6314F83
:1010200021BB14CD2E11CD111211FE13C3E51111E8
:101030006A13CDB61111FE13CD111279D62A4FE5E0
:1010400021BB14CD2E11E1C3E511111413CDB6113E
:10105000116730CD111279D6264FE5214314C343D1
:1010600010110C13CDB611116730CD111279D622A3
:10107000C35910CD0E1211A230C3E511CD0E1211BD
:10108000A030C3E51111A230CD1112C3D41111A0AB
:1010900030C38810119713CDB6113E1D91C6302173
:1010A0008F9F7723C3E811D6064F060021C914CDC0
:1010B0002E11C3B6113E0432739FC579218914CD18
:1010C0002E11C179FE03DA6F0FD5CD1711CD47115F
:1010D000D1C3E511119730EB226F9FEB11A514EBF3
:1010E00022719FEBC32D0E218F9FCDF610C33C12B2
:1010F000CDF610C3E811CD2312CD1A12CD17117BF6
:10110000FE80DA11112F3C5FCD3712CD8011C3283C
:1011100012CD3212C30B11E52A6D9F23235E235695
:10112000E1C9CD2E11218F9FC31A12211B145779AB
:10113000814F7888477A095E2356C9CD8011C3E86C
:1011400011CD6E11C3E811218F9FCD2312CD6E11E9
:10115000CD2812C33C12CD2312CD6E11C32812E547
:101160002A6D9FCDFE05EBE1CD6E11C3E8117AFE2D
:10117000A0DA78113E307723CD90113E48C32A1271
:101180007BFEA0DA8A113E307723CD9811C37B1104
:101190007ACDA1117ACDA5117BCDA1117BCDA51161
:1011A000C90F0F0F0FE60FF630FE3ADA2A12C60704
:1011B000C32A12110813F5C5060821879F1AB7CA5A
:1011C000C91177231305C3BD113E20772305C2CB78
:1011D00011C1F1C9115730C3E511EB2A6F9FEBC361
:1011E000E511116730CD1A123E0D77233E0A7723A1
:1011F000AF77C9218F9FCD2312CD1A12C328122198
:101200008F9FCD2312CD1A12CD2812C33C12115735
:1012100030218F9FCD1A12C33C121A77B7C82313FF
:10122000C31A123E28C32A123E297723C93E20C37F
:101230002A123E2BC32A123E2DC32A123E2CCD2A3F
:1012400012C32D1200070F171F272F373FC9D9F3DD
:10125000FB040C141C242C343C050D151D252D35C8
:101260003D031323330B1B2B3B09192939C1D1E152
:10127000F1C5D5E5F5464E565E666E7E70717273A9
:1012800074757796A6AEB6BE3435060E161E262E9B
:101290003E464E565E666E767E868E969EA6AEB6AE
:1012A000BEC6CED6DEE6EEF6FE4048505860687800
:1012B00041495159616979425262724A5A6A7A4780
:1012C0004F575F46565E44454D676FA0A1A2A3A845
:1012D000A9AAABB0B1B2B3B8B9BABB4353734B5BB5
:1012E0007B41460041462700524554004A50004A7F
:1012F0005200444A4E5A0043414C4C005253540051
:101300004C440048414C5400414444004144430093
:101310005355420053424300414E4400584F52003F
:101320004F5200435000494E430044454300504F44
:1013300050005055534800455800455858004E4FEE
:101340005000524C4341005252434100524C410024
:10135000525241004441410043504C005343460027
:10136000434346004449004549004F555400494E07
:1013700000524C430052524300524C005252005310
:101380004C41005352410053524C004249540052C8
:101390004553004E454700494D0052524400524CBF
:1013A00044004C44490043504900494E49004F55C0
:1013B0005449004C44440043504400494E44004FBB
:1013C000555444004C444952004350495200494E40
:1013D0004952004F544952004C4444520043504437
:1013E0005200494E4452004F544452005245544911
:1013F000005245544E00534554003F3F3F002843A0
:10140000290028484C29004E5A005A004E430043F8
:1014100000504F0050450050004D005C305E30637E
:101420003065306A306C30021457301914171414B8
:101430001411140F140C140A1407140F140C140AAA
:101440001407149A30673060305930E11267306009
:10145000305930671364133A13E81260135C135861
:1014600013541350134C13471342133E136A136E55
:1014700013231320131C131813101314130C130825
:10148000139A306730603059309A30603059309A52
:1014900030603059302E1332132A1326139A3094A9
:1014A00030603059309A309730603059302A1326E6
:1014B00013231320131C131813101357306C306AA6
:1014C00030653063305E305C30E713E213DD13D8F3
:1014D00013D313CE13C913C413BF13BB13B713B362
:1014E00013AE13AA13A613A2139E139A13EC13F1AF
:1014F000139313871383137F137C1379137513715D
:1015000013EB2A229F222E9FEB23CD3B29CD4C2982
:10151000D21715B7CA22157AFEE0D21801EB222E97
:101520009FEBCD3B297EB7CA4215FE2CC218012382
:10153000CD3B29CD4C29DA180121479FCD0503DA8F
:1015400018012A2E9F22229F3A379FB7CA6A152A6E
:10155000349F22229F21379F11399FCDA015213B17
:101560009F113D9FCDA015C38515213F9F11419F20
:10157000CDA01521439F11459FCDA01521479F1157
:10158000499FCDA0152A209FF92A229FE52A0C9F6A
:10159000E52A0E9F444D2A0E9F546D2A129FF1C9D1
:1015A0007EB7C81A4F131A473EFF02C923CD3B2905
:1015B000CD4C29DA1801CD3B297EB7C2180179B785
:1015C000C2C815EB2A079FEBEBCD2D28E521762E1F
:1015D000CD2328E17EE5CD32283E20CDF930CD88DF
:1015E00028CD3B297EB7C2F115E12322079FC3C94D
:1015F00015FE2DC2FE15E12B22079FC3C915FE2E35
:10160000C20A16E122079FC3CD00CD4C29B7E1CA1B
:101610001801732322079FEB2A419FEB1A32409F48
:10162000EB2A459FEB1A32449FC3C915AF323F9F47
:1016300032439F23CD3B29CD4C29CD3B297EB7C2D8
:10164000180179B7C24A16110000CDEA30FE53CA1C
:10165000BD16FE3ACA6716FE0DCA4A16FE0ACA4AE7
:1016600016CDEA30C357163E2ECDF930CD49284F5E
:1016700047CD492867814FCD49286F814F19CD4902
:1016800028320A9F814F78B7CAA316CD4928F58121
:101690004F3A0A9FB7C29E16F17723C39F16F105F2
:1016A000C28B16CD492881C2B4163A0A9FB7CA61C7
:1016B00016C3CD00214D2ECD2328C3CD00CDEA3059
:1016C000320A9FCD4928474FCD492867814FCD49E0
:1016D000286F814F19050505CAF416CD4928F581F3
:1016E0004F3A0A9FFE31C2EF16F17723C3F016F18D
:1016F00005C2DB16CD492881FEFFC212173A0A9FA8
:10170000FE37CA1817FE38CA1817FE39CA1817C389
:101710006116215A2ECD2328C3CD00237EFE49CA4F
:101720002717FE53C22B172332099FCD3B29CD4CDF
:1017300029B7CA5617EB22A09FEBCD3B297EFE2C82
:10174000C2561723CD3B29CD4C29B7CA5617CD3BDE
:10175000297EB7CA5917C318012AA09FEB23B7CD1A
:10176000CF30CD84177CB5C262173A099FFE49C2BB
:101770007B1721792ECD2328C3CD0021872ECD23A1
:1017800028C3CD000E107CB7C291177DB9D2911736
:101790004F0600B7CDB430413A099FFE49C2D21777
:1017A0003E3ACDF93078CD3228487ACD32287A8148
:1017B0004F7BCD32287B814FAFCD32281AF5CD3209
:1017C00028F1814F1305C2BC17792F3CCD3228C3B5
:1017D00071283E53CDF9303E31CDF93078C6034FF4
:1017E000CD32287ACD32287A814F7BCD32287B8149
:1017F0004F1AF5CD3228F1814F1305C2F117792F19
:10180000CD3228C3712823CD3B29B7C21418CD98F7
:1018100018C3CD00EB213D2FBECA2B184F237EB736
:10182000CA95187901050009C31818237EFE0FC256
:101830003C18234E236669131AC31818B7CA9518A3
:101840004E235E2356D5237E23666FCD23283E3D4F
:10185000CDF93079E607FE01C26418E17EE5CD32AC
:1018600028C37018E1E5237ECD32282B7ECD3228A7
:101870003E20CDF930C5CD8828CD3B29CD4C29B7A8
:10188000CA9218C1E179FE01C28F1873C39218730E
:101890002372C3CD00C3180121942E5E2356237AF0
:1018A000B3CA7128D5EBCD2328EBD13E2EBAC2BAEC
:1018B000183EFFBBC2BA18C3E8183E2FBAC2C618FA
:1018C0003E26BBCAE8185E2356237E23EBFE01C2E8
:1018D000DA187ECD3228EBC39B18237ECD32282B1D
:1018E0007ECD3228EBC39B185E2356231AD5E52103
:1018F000609F011F19112719F5F187D20519F50A03
:1019000077F1C30919F51A77F1031323F57EB7C2EE
:10191000F918F121609FCD2328E1D123C39B1853EF
:101920005A2E482E504E432E2E2E2E2E2E2E2E491F
:101930004E4952B9494E4452BB4F555449BD4F547C
:101940004952BE4F555444BF4F544452C048414C75
:1019500054B352455449AF5245544EB0444A4E5A7E
:10196000AC43414C4CAD43504452A84C4449528383
:101970004C444452855055534888524C43418A52F6
:101980005243418E43504952A64C4449824C4444F0
:101990008445585887504F5089524C418B524C4384
:1019A0008C5252418F52524390534C419253524168
:1019B0009353524C944144449541444396494E4379
:1019C0009753554298534243994445439A414E4454
:1019D0009B584F529D43504C9E4E45479F43434614
:1019E000A0534346A1424954A2534554A3524553E0
:1019F000A4435049A5435044A7524554AE525354B2
:101A0000B14E4F50B2494E49B8494E44BA4F555461
:101A1000BC444141C1524C44C2525244C34F52474C
:101A2000C4455886524C8D5252914F529C4350A9F6
:101A30004A50AA4A52AB494DB6494EB74449B445FB
:101A400049B54C44814442C54457C6002842432905
:101A50009A284445299B28484C299C284958299D67
:101A6000284959299E28535029A02843299F414697
:101A70002783414682424385444588484C8B4958D8
:101A80008E49598F5350904E5A944E4395504F97CC
:101A900050459841814284438644874589488A4C11
:101AA0008C498D52915A924D935096002849582B4B
:101AB000A12849592BA22849582DA42849592DA5B8
:101AC0000023CD5D27B7CADB1ACD4C29DA1801EB0C
:101AD000224B9FEBCD5D27B7C218012A4B9F224DA9
:101AE0009FAF324F9F32519F32529F32539F2A4DA8
:101AF0009FCD2D2821762ECD232821699FF57EF6B6
:101B00000277F1CD8828E521699FF57EE6FD77F122
:101B1000E1CDB9277EFE1BCA291BFE2ECA291BB7A1
:101B2000C2C01BCD351BC3E11ACD351B2A4D9F22E8
:101B30004B9FC3CD003E0AC3F93021FA13CD351BAC
:101B4000CD232821672ECD2328C3E11A3A519FFEC9
:101B500044CA8E1BFE45CA941BFE46CAA01B3E20EB
:101B60000E2621749F77230DC2651B3E0D7723AF90
:101B700077CD23282A4D9F11749FD5CD1709E1CD2C
:101B800023282A4D9FCDB81B224D9FC3E11ACD3586
:101B90001BC3821BCDAE1BCDB81B22029FC3A81B4B
:101BA000CDAE1B232322029FCDC407C3821BCD359C
:101BB0001B2A4D9F22009FC93A509F4FAF4709C92A
:101BC000CDEC25DA3A1B3A4F9FFE01CA3A22FE02BB
:101BD000CAC7223A519F010D0021EC1BCDA430C28F
:101BE0003A1B21F91B09094E2346C5C901061516E2
:101BF000192B373C2A2D222423231C421C611CF163
:101C00001CFF1C201D2D1D711DA91DBD1D5A1EF57B
:101C10001E851FC0C8D0D8E0E8F0F8C6CED6DEE6F4
:101C2000EEF6FE21131C225C9F211B1C225E9FC32B
:101C30006D1C80889098A0A8B0B8868E969EA6AE9F
:101C4000B6BE21321C225C9F213A1C225E9FC36DCE
:101C50001C4048505860687078464E565E666E76F6
:101C60007E21511C225C9F21591C225E9F3A529F6B
:101C7000FE19C23A1B2A549F7CB7C23A1B7DFE084C
:101C8000D23A1B3A539FFE21CABF1CFE24CAD41C61
:101C9000FE22CADA1CFE25CAE31CD5EB2A5C9FEBA8
:101CA00019D1563A539F21581F010800CDA430C2C4
:101CB0003A1B79FE07CABB1C3E069182C394253AA3
:101CC0005B9F5F16DDD5EB2A5E9FEB19D14B5E3E25
:101CD000CBC3B9253A5A9FC3C21C3A599F5F16FD20
:101CE000C3C51C3A589FC3DD1CECE4F4D4C4FCCC3F
:101CF000DC11E91CC3021DEAE2F2D2C2FACADA110F
:101D0000F71C21EB230108003A529FCDA430C23AC0
:101D10001B3A539FFE19C23A1B626B097EC36A23AA
:101D2000EB2A529FEB424B11D341C3381D11DB40CC
:101D30003A529F473A539F4F79FE23CA5F1DFE1FB9
:101D4000C23A1B78FE01CA591D21421F010600CD6F
:101D5000951DDA3A1B7AC35C1D7AC638C3E6252A7C
:101D6000569F7CB7C23A1B7DF57BC3921D1412159A
:101D700006216D1D01040016203A529FCD951DDAF3
:101D80003A1B3A539FFE19C23A1BCD8327DA3A1BFE
:101D9000F57AC38D23BE230BCAA81D5F7AC60857E8
:101DA00079B07BC2951D37C9C9119F423EDEE5F56A
:101DB0002A9E9FE5F1E1229E9FE1C3CE1D118F4A2D
:101DC0003ECEE5F52A9E9FE5F1E1229E9FE13A5243
:101DD0009FFE01CA061EFE0BC23A1B3A539FFE0528
:101DE000CA011EFE08CAFC1DFE0BCAF71DFE10C26A
:101DF0003A1B3E30C3021E3E20C3021E3E10C302E9
:101E00001EAF82C3E6253A539F21581F010900CD1A
:101E1000A430C23B1E79FE08CA371EB7CA241E7BF7
:101E200091C34E222A549FE5F52A9E9FE5F1E122B7
:101E30009E9FE157C320207BC3211E21611F010407
:101E400000CDA430C23A1B21589F0956790EFDFEE1
:101E500002DA561E0EDD1DC36A201187093EC6E553
:101E6000F52A9E9FE5F1E1229E9FE13A539F473A72
:101E7000529FFE01CA061EFE0BCACC1EFE0ECA8B66
:101E80001EFE0FC23A1B0EFDC38D1E0EDD78FE0531
:101E9000CAAE1EFE08CAB31EFE0ECAB81EFE0FCA88
:101EA000C31EFE10C23A1B3E39F579C38D233E098D
:101EB000C3A91E3E19C3A91E79FEDDC23A1B3E29E5
:101EC000C3A91E79FEFDC23A1BC3BE1E78FE05CA19
:101ED000E61EFE08CAEB1EFE0BCAF01EFE10C23A3A
:101EE0001B3E39C3211E3E09C3211E3E19C3211EBC
:101EF0003E29C3211E3A539F473A529FFE02CA2BE6
:101F00001FFE08CA361FFE20C23A1B781EE3FE0BD6
:101F1000CA271FFE0E16DDCA211FFE0FC23A1B166E
:101F2000FD7BF57AC38D237BC33E1F78FE03C23A47
:101F30001B3E08C33E1F78FE0BC23A1B3EEBC34E4E
:101F40002201040607090A0C05080B0E0F212422A2
:101F5000250D10111A1B1C2301040607090A0C1C6D
:101F600019212422251A1B0D11236860585048405E
:101F700078D31FE51FEA1FEF1FF41FF91F07200D7D
:101F80002016201C203A529F21411F010700CDA49A
:101F900030C22E20216A1F09563A539F21581F0133
:101FA0000800CDA430C2B51F79FE07CAB11F3E0696
:101FB00091B2C34E2221601F010A00CDA430C23A63
:101FC0001B79FE05D2CD1F7AFE78C23A1B21711F04
:101FD000C3E51B3E3A2A4D9F7723EB2A569FEB73AE
:101FE0002372C377233E5FC3E6253E57C3E71F3EF8
:101FF0001AC34E223E0AC34E223A589F4F1EFD3E40
:1020000006B2577BC38F243A599FC3FC1F3A5A9F8D
:102010004F1EDDC3FF1F3A5B9FC310207AD63A578D
:102020002A549F7CB7C23A1B7DF57AC38D230105E4
:1020300000CDA430C2B72079B7CAB220FE01CA973A
:1020400020FE02CA7E20FE03CA752016ED1E4B0E2E
:10205000013A539FFE19CA63207B21569F4E235E8F
:10206000C3B92521549F5E2356792A4D9F7123734E
:102070002372C3772316ED1E5B0E11C351200E2170
:10208000EB2A549FEB3A539FFE19CA6A200E2AEBA3
:102090002A569FEBC36A2016DD0E2121549F3A5326
:1020A0009FFE19CAAB200E2A21569F794E235EC38C
:1020B000B92516FDC39920010400CDA430C2032127
:1020C00021589F0956791EFDFE02DACF201EDD3A07
:1020D000539FFE19CAF32021411F010700CDA430F0
:1020E000C23A1B79FE063E77CAEE203E75914B5FE1
:1020F000C36A202A549F7CB7C23A1B3E364A535DBE
:10210000C3B925010700CDA430C23A1B211221C357
:10211000E51B2E216821E021E521EA219B21EF2109
:10212000010B0508100E0F222273534322323A533B
:102130009F212021010700CDA430C23A1B21272175
:1021400009794E2A569FFE05DA50215D54C36A2054
:10215000FE02DA5D2116ED794D5CC3B92516FDB797
:10216000CA572116DDC357213A539FFE19CA8C2145
:10217000FE01CA872121421F010600CDA430C23AC8
:102180001B3E7591C34E223E77C384212A549F7C07
:10219000B7C23A1B7DF53E36C38D233A539FFE0BE3
:1021A000CAC321FE0ECAC821FE0FCACD21FE19CA1C
:1021B000D621FE23C23A1B16ED3E7B2A569F4D5C6C
:1021C000C3B9253EF9C3E72116DDC3CF2116FD3E75
:1021D000F9F57AC38D230E31EB2A549FEBC36A20A5
:1021E0003E12C3E7213E02C34E223E4FC3E6253EC8
:1021F00047C3E625070A0B0E0F1E20212E3233346B
:10220000354127FBF37600C9373F2F1F0F1707D93A
:10221000272825263A3B3839040502031F403E3F54
:102220003D2F304243676F454DA3ABB3BB44B0A0D5
:10223000B8A8B2A2BAAAB1A1B9A93A519F010E0099
:1022400021F421CDA430C25A22210222097E2A4D36
:102250009F773E0132509FC34C1B01150021102275
:10226000CDA430C23A1B2A4D9F3EED7723EB2125AA
:1022700022097E123E02C354220809171A181B1C99
:102280001D292A2E312B2C2D0C100D111213143652
:10229000444546DC22F4223523C82558255E2564B2
:1022A000256A25702576257C2560237C239723AB22
:1022B00023D623FB2338243D24422447244C24D115
:1022C00024D7241D2522253A519F011A0021792265
:1022D000CDA430C23A1B219322C3E51B3A529FFE84
:1022E00019C23A1BEB2A549FEB424B2A4D9F712394
:1022F00070C374223A529FFE19CA2023FE26C23AA6
:102300001B2A549FAF4FEB2A4D9FEB7EFE22CA1C27
:1023100023B7CA1C231223130CC30B2379C35422E3
:10232000EB2A549FEB424B78B7C23A1B2A4D9F7160
:102330003E01C354223A529FFE19C23A1BAF2A549F
:102340009F010080CDB430DA3A1B0100A02A549FCF
:10235000CDB430DA56232A549F224D9FAFC3542266
:102360003A529FFE19C23A1B3ECD2A4D9F7723EB6E
:102370002A549FEB7323723E03C354223A529FFEAA
:1023800019C23A1BCD8327DA3A1BF53E102A4D9F1E
:102390007723F177C374223A529FFE19C23A1BCDBC
:1023A0008327DA3A1BF53E18C38D232A549F7CB746
:1023B000C23A1B7D21C623010800CDA430C23A1BBE
:1023C00021CE23C34C220008101820283038FFF7F4
:1023D000EFE7DFD7CFC73A529F21EB23010800CDAB
:1023E000A430C23A1B21F323C34C22061213141546
:1023F000161718E8E0F0D0C0F8C8D83A529FFE1976
:10240000CA26242EE9FE1CCA2224FE1DCA1B24FE55
:102410001EC23A1B7DF53EFDC38D237DF53EDDC317
:102420008D237DC34E223EC3C36A2306060606469D
:10243000060504030201000716B8C34E2416A8C3FC
:102440004E2416B0C34E2416A0C34E2416903A5202
:102450009F21581F010D00CDA430C23A1B212B240F
:10246000097EB25779FE05DA6E247AC34E22FE0445
:10247000DA81242A549F7CB7C23A1B7DF57AC38D3A
:1024800023FE023EFDDA8A243EDD21589F094E2AB2
:102490004D9F777A23772371C377230104050607BD
:1024A00008090A0B0C101C0E0F2124222535353586
:1024B000352B2B353B2D2B251D1B150D0B053D34C9
:1024C000343434232334332C23241C13140C0304FA
:1024D0003C11AD24C3DA2411BF243A529F219B241E
:1024E000011200CDA430626BC23A1B7916FDFE06C4
:1024F000D24C22097E5F79FE04DA0525CA01251631
:10250000DD7BC37C24FE02DA0C2516DD7A53C38AF8
:10251000240205080B0E0FE0E0E0D0C0F01601C366
:10252000242516052111250106003A529FCDA4301D
:10253000C23A1B211725097EB25779FE027AD24E84
:10254000221EFD79B7CA4A251EDD7AF57BC38D238D
:102550000605040302010007113E38C37F25112E32
:1025600028C37F25112620C37F25111E18C37F2570
:10257000111610C37F25110E08C37F251106003ADE
:10258000529F21581F010800CDA430C29A25215026
:1025900025097EB2F53ECBC38D2321611F010400C6
:1025A000CDA430C23A1B16FD79FE02DAB02516DD45
:1025B00021589F094E23463ECB2A4D9F72237723F5
:1025C0007123733E04C354223A559FB7C23A1B3A53
:1025D000549FFE03D23A1B0E46B7CAE5250E563D60
:1025E000CAE5250E5E79F53EEDC38D23CDD926D8FB
:1025F00032519FCD3E267EB7C8FE20C23C26CD4636
:1026000026D832529FE5F52A9E9FE5F1E1229E9F52
:10261000E1CD3E26E5F52A9E9FE5F1E1229E9FE170
:10262000FE26C87EB7C8FE2CC23C26CD4626D83230
:10263000539FCD3E267EB7C23C26C9F137C93A4FDB
:102640009F3C324F9FC923CDCD26D0CDD326DA9BD8
:1026500026F5CD0827DA3B267AB7C23B267EFE292F
:10266000C23B2623F1F5FE21C27126015B9FC3798F
:1026700026FE22C2822601599F7BFE80D23B260283
:10268000F1C9FE24C29526015A9F7BFE81D23B26CA
:102690002F3CC37F2601589FC38A267EFE28C2B5E1
:1026A0002623CD0827D87EFE29C23C2623EB2256BE
:1026B0009FEB3E23C9FE22C2C1262322549F3E2601
:1026C000C9CD0827D8EB22549FEB3E19C9114C1AEB
:1026D000C3DF2611AC1AC3DF2621749F112F19E521
:1026E0001ABEC2EA262313C3E026E680C2002713DF
:1026F0001AE680CAEF26131AB7CA0527E1C3DF26F8
:102700001AE67FD1C9E137C911979F0E00CD652721
:10271000D81213230CCD7027DA28271213230C7933
:10272000FE07CA6E27C31527E5F52A9E9FE5F1E14E
:10273000229E9FE1AF12E5F52A9E9FE5F1E1229EE0
:102740009FE1FE48CA5227E521979FCD3802E1500C
:1027500059C923E521979FCD4C29E1B7C97EFE20B9
:10276000C023C35D277EFE3AD26E27FE30D037C924
:102770007EFE30D8FE3ADA8127FE41D8FE47D26E7F
:1027800027B7C9E5D5EB2A4D9FEB13132A549FAF0A
:10279000CDCF30DAA5277CB7C2B5277DFE80D2B574
:1027A00027B7D1E1C97CFEFFC2B5277D2F3CFE8152
:1027B0007D3FC3A22737C3A227E5D5C521749F5407
:1027C0005D0E20CD5D27CDE027B7CADC270E0023A4
:1027D000CD5D27B7CADA27CDE0271B12C1D1E1C9E9
:1027E00006001213B7C8B9C8FE22C20928E5F52AA7
:1027F0009E9FE5F1E1229E9FE178EE0147E5F52AF3
:102800009E9FE5F1E1229E9FE1237EB9CAE2273235
:102810009F9F78E6013A9F9FC2E227FE20CAE827E1
:10282000C3E2277EA7C8CDF93023C323287CCD324D
:10283000287DF51F1F1F1FCD3B28F1E60FC630FE78
:102840003ADAF930C607C3F930AFCD512807070788
:1028500007C54FCDEA30FE30DA6F28FE3ADA6C2831
:10286000FE41DA6F28FE47D26F28D607D630B1C1B5
:10287000C93E0DCDF9303E0AC3F930E5218428CD9B
:102880002328E1C91B5B320021749F0628D5E55837
:102890001D0600CDEA30FE0DCA0929FE0ACA092923
:1028A000FE08CAF028FE7FCAF028FE22C2B928F529
:1028B0003A699FEE0432699FF1FE20DA9328FE8088
:1028C000D293284F78BBD293280479CDF930FE619A
:1028D000DAEB28FE7BD2EB28E521699F329F9F7EB1
:1028E000E6043A9F9FC2EA28E6DFE17723C39328F4
:1028F00078A7CA9328052B3E08CDF9303E20CDF9A4
:10290000303E08CDF930C39328E521699F329F9F5F
:102910007EE6013A9F9FC21E293E0DCDF930329FBF
:102920009F7EE6023A9F9FC22F293E0ACDF930F5DD
:102930007EE6FB77F1E13600E1D1C97EFE20C023BF
:10294000C33B29FE61D8FE7BD0C6E0C90E00110052
:10295000007EFE30DA9929FE3ADA6829FE41DA99DA
:1029600029FE47D29929D607D6301717171717C54A
:10297000477B8B5F7A8A577817477B8B5F7A8A57BA
:102980007817477B8B5F7A8A577817477B8B5F7AFC
:102990008A5778C1230CC3512979B7CAA529FE05E6
:1029A000D2A529B7C937C9E5C521C6290600090935
:1029B00001F229B7E5CDB430E1D2C32946236668D8
:1029C000C1E3C9C1E1C94300F229F9302328EA3043
:1029D000F430392A2D2832283B287B288D283B29A2
:1029E000712843294C295D2B9B2B252CC2291709C3
:1029F000380231009F3A479FB7CA022A21489FCD2B
:102A0000152B3A379FB7CA0F2A21389FCD152B3A7D
:102A10003B9FB7CA1C2A213C9FCD152B3A439FB739
:102A2000CA292A21449FCD212B3A3F9FB7CA362A73
:102A300021409FCD212BC3EA2AAFC9F522129F6204
:102A40006B22109F6069220E9FE1220C9FE12B22D6
:102A5000229F2100003922209F31009FAF575F3A0B
:102A6000479FB7CA6F2A114B2B21489FCD152B3A90
:102A7000439FB7CA7F2A114B2B21449FCD212B3A6C
:102A80003F9FB7CA8F2A114B2B21409FCD212B3A54
:102A9000379FB7CA9F2A11542B21389FCD152B3A47
:102AA0003B9FB7CAAF2A11542B213C9FCD152B7ADF
:102AB000B3C2B72A11412B1AFE54CACA2AEBCD233E
:102AC00028CD9818CD282BC3EA2A3A309FFE46CA53
:102AD000DC2AEBCD2328CD9818CD282BCDF430CA95
:102AE000F62ACDEA30FE03C2F62AAF32369F676F70
:102AF00022329FC3CD003A369FB7C20C2B2A329F99
:102B00002B22329F7DB4C20C2BC3CD002A229F22E0
:102B1000349FC3A004E57E234E234602E1AF2B770A
:102B2000C97E234E234602C92A229F226D9FCD7D56
:102B300009CD3D0921749FCD23282A229F226D9F14
:102B4000C9525354203338480D0A00427265616BF4
:102B5000210D0A005472616365210D0A00F5C5D587
:102B6000E522A09FEBE521050019AF77EBE101011C
:102B7000003E0ACD9B2BF6301B120C7CB5C2712B8C
:102B800079FE06CA962B2AA09FEBF57E1223130B23
:102B900079B0C28B2BF1E1D1C1F1C9C5D54F060F78
:102BA000AF291791DAB72B292C1791DABD2B292CD5
:102BB00005C2A92BC3C32B291781DAAE2B2905C265
:102BC000B82B81D1C1C922269FEB22289FEBAF32BF
:102BD0002A9F322B9F322C9F322D9F0610212A9F35
:102BE0007E8777237E8F7721269F7E8777237E8F30
:102BF00077212C9F7E8F77237E8F772A289F5D54A5
:102C00002A2C9FAFCDCF30D20D2CC3182C222C9F55
:102C10003A2A9FF601322A9F05C2DD2B2A2C9F54A7
:102C20005D2A2A9FC9F5C5D5B7C3342C5779814F82
:102C30007888477A1FD22C2C09C22C2CD1C1F1C91B
:102C40003F203A436F6D6D616E642048656C700D76
:102C50000A234C7C3C6E756D3E203A4C61756E6368
:102C6000682070726F6772616D0D0A415B3C616430
:102C700064726573733E5D203A204D696E69204130
:102C80007373656D626C65206D6F64650D0A425BE0
:102C9000317C325B2C3C6164723E5D5D203A536551
:102CA00074206F72204C69737420427265616B20CE
:102CB000506F696E740D0A42435B317C325D203A7D
:102CC000436C65617220427265616B20506F696E62
:102CD000740D0A445B3C6164723E5D203A44756D3C
:102CE00070204D656D6F72790D0A44495B3C6164DB
:102CF000723E5D5B2C733C73746570733E7C3C610B
:102D000064723E5D203A446973617373656D626CF1
:102D1000650D0A475B3C6164723E5D5B2C3C7374DD
:102D20006F70206164723E5D203A476F20616E646F
:102D30002053746F700D0A4C203A4C6F6164204828
:102D4000657846696C650D0A505B497C535D203A95
:102D5000536176652048657846696C6528493A492B
:102D60006E74656C2C533A4D6F746F726F6C612981
:102D70000D0A525B3C7265673E5D203A53657420D4
:102D80006F722044756D7020726567697374657227
:102D90000D0A535B3C6164723E5D203A53657420BA
:102DA0004D656D6F72790D0A545B3C6164723E5DD6
:102DB0005B2C3C73746570733E7C2D315D203A2032
:102DC000547261636520636F6D6D616E640D0A54AA
:102DD0004D5B497C535D203A5472616365204F70AE
:102DE00074696F6E20666F722043414C4C0D0A541B
:102DF000505B4F4E7C4F46465D203A54726163658E
:102E0000205072696E74204D6F64650D0A0D0A457D
:102E10004D555A3830204D4F4E49544F522052652F
:102E2000762E4230330D0A54686973206D6F6E69D7
:102E3000746F72206973206261736564206F6E2005
:102E4000756E696D6F6E2E0D0A005D200045727201
:102E50006F7220696865780D0A004572726F722082
:102E6000737265630D0A004572726F720D0A00205D
:102E70003A00207C20002020003A303030303030C2
:102E8000303146460D0A0053393033303030304649
:102E9000430D0A00E92E0D9F01ED2E0E9F02F32E29
:102EA000109F02F92E129F02FF2E0C9F01042F1C6F
:102EB0009F02092F1E9F020E2F159F01142F169F90
:102EC000021A2F189F02202F1A9F02262F149F01EB
:102ED0002B2F209F02302F229F02352F249F013954
:102EE0002F259F01000000000041203D00204243AB
:102EF000203D00204445203D0020484C203D00203E
:102F000046203D002049583D002049593D000D0A0A
:102F100041273D00204243273D00204445273D00F6
:102F200020484C273D002046273D002053503D00BF
:102F30002050433D0020493D0020523D00410F8775
:102F40002F0000420F952F0000430FB72F000044C1
:102F50000FC52F0000450FE72F0000460FF52F008B
:102F600000480F03300000490F333000004C0F259C
:102F7000300000500F473000005201259FA230530F
:102F80000F4F300000000000010D9F573027011542
:102F90009F7030000000010F9F5C302701179F7762
:102FA00030430FA92F0000000000020E9F59302768
:102FB00002169F7330000000010E9F5E302701163D
:102FC0009F7A3000000001119F63302701199F8113
:102FD00030450FD92F000000000002109F603027FD
:102FE00002189F7D3000000001109F6530270118F6
:102FF0009F8430000000010C9F6E302701149F91C8
:103000003000000001139F6A3027011B9F8B304C5A
:103010000F1730000000000002129F673027021ACD
:103020009F873000000001129F6C3027011A9F8E8D
:103030003000000001249FA03058021C9F9430599A
:10304000021E9F973000004302229F9D30000050D7
:1030500002209F9A3000004100424300420043009A
:1030600044450044004500484C0048004C004600E0
:1030700041270042432700422700432700444527B9
:1030800000442700452700484C27004827004C27CC
:10309000004627004958004959005350005043004A
:1030A00049005200BE230BC8F578B1CAB230F1C353
:1030B000A430F1C9D5577D996F7C9867DAC630FA8C
:1030C000C630B5C2C9307AD1C93E01B77AD1C9C5B7
:1030D000477D9B6F7C9A67DAE130FAE130B5C2E454
:1030E0003078C1C93E01B778C1C9DB01E602CAEA3E
:1030F00030DB00C9DB01E602C9F5DB01E601CAFAF3
:1031000030F1D300C9FFFFFFFFFFFFFFFFFFFFFF0D
:10311000FFFFFFFFFFFFFFFFFFFFFFFFFFFFFFFFBF
:10312000FFFFFFFFFFFFFFFFFFFFFFFFFFFFFFFFAF
:10313000FFFFFFFFFFFFFFFFFFFFFFFFFFFFFFFF9F
:10314000FFFFFFFFFFFFFFFFFFFFFFFFFFFFFFFF8F
:10315000FFFFFFFFFFFFFFFFFFFFFFFFFFFFFFFF7F
:10316000FFFFFFFFFFFFFFFFFFFFFFFFFFFFFFFF6F
:10317000FFFFFFFFFFFFFFFFFFFFFFFFFFFFFFFF5F
:10318000FFFFFFFFFFFFFFFFFFFFFFFFFFFFFFFF4F
:10319000FFFFFFFFFFFFFFFFFFFFFFFFFFFFFFFF3F
:1031A000FFFFFFFFFFFFFFFFFFFFFFFFFFFFFFFF2F
:1031B000FFFFFFFFFFFFFFFFFFFFFFFFFFFFFFFF1F
:1031C000FFFFFFFFFFFFFFFFFFFFFFFFFFFFFFFF0F
:1031D000FFFFFFFFFFFFFFFFFFFFFFFFFFFFFFFFFF
:1031E000FFFFFFFFFFFFFFFFFFFFFFFFFFFFFFFFEF
:1031F000FFFFFFFFFFFFFFFFFFFFFFFFFFFFFFFFDF
:10320000C30632C37B32C30D32CC3A4342214580E0
:10321000F9C3744E11EB3406632145801A772313EA
:1032200005C21C32F9CDEC36CDC23C32EF80323EC5
:103230008121A281237CB5CA43327E472F77BE709D
:10324000CA34322B11A181CD8238DA843211CEFFFB
:1032500022F48019229F80CDC7362A9F8011EFFF6C
:1032600019113E817D936F7C9A67E5219C32CD6177
:1032700043E1CD064A218D32CD614331AB80CDECA7
:1032800036C3053621D932CD6143C38A3220427913
:1032900074657320667265650D0A0000494E5445D9
:1032A0004C38303830204241534943205665722013
:1032B000342E37620D0A436F707972696768742023
:1032C0002843292031393738206279204D696372CB
:1032D0006F736F66740D0A00004D656D6F72792013
:1032E00073697A65206E6F7420656E6F7567680DFF
:1032F0000A5468652073797374656D20697320734F
:10330000746F707065642E0D0A00007B483F499110
:103310004848802142A8454F42054BE44B20475383
:103320004B594C5F4CC04CD54CFC45404D9680D31E
:1033300044EB426D45E244F344624DFF4D03453397
:10334000453D45C54E44C64F52CE455854C44154E0
:1033500041C94E505554C4494DD2454144CC4554C1
:10336000C74F544FD2554EC946D24553544F52457C
:10337000C74F535542D2455455524ED2454DD35462
:103380004F50CF5554CF4ECE554C4CD7414954C4D5
:103390004546D04F4B45C44F4B45D3435245454E10
:1033A000CC494E4553C34C53D749445448CD4F4E56
:1033B00049544F52D34554D245534554D052494EA7
:1033C00054C34F4E54CC495354C34C454152C34C43
:1033D0004F4144C353415645CE4557D4414228D46A
:1033E0004FC64ED3504328D448454ECE4F54D354A5
:1033F0004550ABADAAAFDEC14E44CF52BEBDBCD32B
:10340000474EC94E54C14253D55352C65245C94E78
:1034100050D04F53D35152D24E44CC4F47C5585041
:10342000C34F53D3494ED4414EC1544ED045454B62
:10343000C445454BD04F494E54CC454ED3545224ED
:10344000D6414CC15343C3485224C8455824C249AD
:103450004E24CC45465424D24947485424CD4944AF
:103460002480643A5D393C3EB13B433D7940723D36
:10347000C83B6E3B513B403C263A5D3B8C3BB33BEB
:10348000623AB445223CA33ABA45574203464B4DF3
:10349000B33B314D244D294D704E99809C80643C46
:1034A000903ACE380B3BB33BB33BC63679ED497906
:1034B00021467C5F477CC0477F0E4B50D23F46D1B0
:1034C0003F4E46534E52474F4446434F564F4D553D
:1034D0004C425344442F304944544D4F534C535362
:1034E00054434E55464D4F4858424EC37B32C3E17C
:1034F0003AD300C9D6006F7CDE006778DE00473E15
:1035000000C9000000354ACA99391C76982295B343
:10351000980ADD479853D199990A1A9F9865BCCDAE
:1035200098D6773E9852C74F80DB00C901FF1C0038
:10353000001400140000000000C3FF37C30000C3E4
:103540000000C30000A281FEFF3F81204572726F20
:10355000720020696E20004F6B0D0A0000427265F8
:10356000616B00210400397E23FE81C04E23462377
:10357000E569607AB3EBCA7D35EBCD8238010D0089
:10358000E1C809C36735CDA035C5E3C1CD82387E1A
:1035900002C80B2BC38C35E52A1F81060009093EA2
:1035A000E53ED0956F3EFF9CDAAF356739E1D81E16
:1035B0000CC3CE352A0E8122A1801E02011E1401E9
:1035C0001E00011E12011E22011E0A011E18CDEC52
:1035D00036328A80CDB53C21C134573E3FCD933839
:1035E000197ECD9338CD163ACD9338214B35CD6128
:1035F000432AA18011FEFFCD8238CA0D327CA53C42
:10360000C4FE493EC1AF328A80CDB53C215735CD8D
:10361000614321FFFF22A180CDFF37DA1236CD169C
:103620003A3C3DCA1236F5CDE63AD5CD163747D1EC
:10363000F1D2F639D5C5AF321181CD163AB7F5CDF5
:10364000A636DA4B36F1F5CA873BB7C5D26236EB00
:103650002A1B811A020313CD8238C25336606922B5
:103660001B81D1F1CA89362A1B81E3C109E5CD86C8
:1036700035E1221B81EB74D123237323722311A61E
:10368000801A772313B7C28136CDD23623EB626B13
:103690007E23B6CA1236232323AFBE23C29A36EB4B
:1036A000732372C38E362AA380444D7E23B62BC863
:1036B00023237E23666FCD823860697E23666F3F49
:1036C000C83FD0C3A936C02AA380AF77237723226F
:1036D0001B812AA3802B2213812AF480220881AF28
:1036E000CD263A2A1B81221D81221F81C12A9F805B
:1036F000F921F88022F680AF6F672219813210819C
:10370000222381E5C52A1381C93E3FCD93383E204F
:10371000CD9338C39380AF32F3800E0511A6807E1F
:10372000FE20CA9E3747FE22CABE37B7CAC5373AFF
:10373000F380B77EC29E37FE3F3E9ECA9E377EFE16
:1037400030DA4937FE3CDA9E37D5114233C5019A4B
:1037500037C5067F7EFE61DA6237FE7BD26237E6CE
:103760005F774EEB23B6F26437047EE67FC8B9C2BA
:103770006437EBE5131AB7FA96374F78FE88C2859F
:1037800037CD163A2B237EFE61DA8E37E65FB9CA53
:103790007437E1C3623748F1EBC9EB79C1D1231229
:1037A000130CD63ACAAC37FE49C2AF3732F380D6D3
:1037B00054C21F37477EB7CAC537B8CA9E372312CF
:1037C0000C13C3B53721A5801213121312C93A89FD
:1037D00080B73E00328980C2E23705CAFF37CD93F9
:1037E000383E052BCAF6377ECD9338C30838052BF3
:1037F000CD9338C20838CD9338CDC23CC3FF3721B2
:10380000A6800601AF328980CDBD384FFE7FCACE7B
:10381000373A8980B7CA21383E00CD9338AF328914
:103820008079FE07CA6538FE03CCC23C37C8FE0D5E
:10383000CABD3CFE15CAF937FE40CAF637FE5FCA5C
:10384000EE37FE08CAEE37FE12C26038C5D5E5363F
:1038500000CD834E21A680CD6143E1D1C1C308389C
:10386000FE20DA083878FE493E07D27A387971327C
:1038700011812304CD9338C30838CD93383E08C353
:1038800074387C92C07D93C97EE3BE23E3CA163AA6
:10389000C3BA35F53A8A80B7C29643F1C5F5FE2022
:1038A000DAB7383A8780473AF08004CAB33805B8A7
:1038B000CCC23C3C32F080F1C1CD6D4EC9CD224D21
:1038C000E67FFE0FC03A8A802F328A80AFC9CDE6EC
:1038D0003AC0C1CDA636C5CD2439E14E2346237862
:1038E000B1CA0536CD2D39CD413AC5CDC23C5E2396
:1038F0005623E5EBCD064A3E20E1CD93387EB72333
:10390000CADA38F2FA38D67F4F1143331A13B7F2B6
:103910000C390DC20C39E67FCD93381A13B7F21665
:1039200039C3FD38E52A8D80228B80E1C9E5D52A8F
:103930008B8011FFFF7B8D6F7A8C67228B80D1E1AA
:10394000F0E52A8D80228B80CD224DFE03CA5439AA
:10395000E1C32D392A8D80228B80C37E323E6432B2
:103960001081CDC83BC1E5CDB13B220C81210200C5
:1039700039CD6735D1C28D3909D52B562B5E23231E
:10398000E52A0C81CD8238E1C27139D1F9EB0E08FC
:10399000CD9735E52A0C81E3E52AA180E3CD8A3E67
:1039A000CD8838A6CD873EE5CDB848E1C5D5010024
:1039B00081515A7EFEAB3E01C2C939CD163ACD8740
:1039C0003EE5CDB848CD6C48E1C5D5F533E52A13C1
:1039D00081E30681C533CD413A2213817EFE3ACA86
:1039E000F639B7C2BA35237E23B6CA6C3A235E23B2
:1039F00056EB22A180EBCD163A11D639D5C8D68028
:103A0000DAC83BFE25D2BA35074F0600EB216234F7
:103A1000094E2346C5EB237EFE3AD0FE20CA163A55
:103A2000FE303F3C3DC9EB2AA380CA3B3AEBCDE6D2
:103A30003AE5CDA6366069D1D2873B2B222181EBB6
:103A4000C9DFC8D7FE1BCA5D3AFE03CA5D3AFE1342
:103A5000C0D7FE11C8FE03CA623AC3513A3EFF32D4
:103A60009280C0F6C022138121F6FFC12AA180F501
:103A70007DA43CCA7F3A2217812A1381221981AF83
:103A8000328A80CDB53CF1215D35C2EE35C30536B5
:103A90002A19817CB51E20CACE35EB2A178122A1B6
:103AA00080EBC9CDEB45C0328680C9E52A8F800600
:103AB000004F09228F80E1C97EFE41D8FE5B3FC9DD
:103AC000CD163ACD873ECD6C48FAE13A3A2C81FECC
:103AD00090DA1449018090110000E5CDE748E151EA
:103AE000C81E08C3CE352B110000CD163AD0E5F51F
:103AF000219819CD8238DABA35626B19291929F162
:103B0000D6305F160019EBE1C3EA3ACAD636CDC308
:103B10003A2BCD163AE52AF480CA2E3BE1CD8838FF
:103B20002CD5CDC33A2BCD163AC2BA35E3EB7D93F3
:103B30005F7C9A57DAAF35E52A1B8101280009CD51
:103B40008238D2AF35EB229F80E122F480E1C3D6E8
:103B500036CAD236CDD63601D639C36D3B0E03CD2B
:103B60009735C1E5E52AA180E33E8CF533C5CDE666
:103B70003ACDB33BE52AA180CD8238E123DCA936DA
:103B8000D4A63660692BD81E0EC3CE35C016FFCD25
:103B90006335F9FE8C1E04C2CE35E122A180237C60
:103BA000B5C2AB3B3A1181B7C2043621D639E33EE8
:103BB000E1013A0E0006007948477EB7C8B8C8232D
:103BC000FE22CAB73BC3BA3BCD7E40CD8838B4D5C0
:103BD0003AF280F5CD993EF1E32213811FCD8C3E60
:103BE000CA1B3CE52A2981E523235E23562AA380AC
:103BF000CD8238D20A3C2A9F80CD8238D1D2123C65
:103C0000210481CD8238D2123C3ED1CDC244EBCDCD
:103C1000FB42CDC244E1CDC748E1C9E5CDC448D19E
:103C2000E1C9CDEB457E47FE8CCA313CCD88388852
:103C30002B4B0D78CAFE39CDE73AFE2CC0C3323C7F
:103C4000CD993E7EFE88CA4E3CCD8838A92BCD8AC0
:103C50003ECD6C48CAB33BCD163ADA6E3BC3FD3954
:103C60002BCD163ACAC23CC8FEA5CAF53CFEA8CA6E
:103C7000F53CE5FE2CCADE3CFE3BCA183DC1CD99A1
:103C80003EE53AF280B7C2AE3CCD114ACD1F433675
:103C9000202A2981342A29813A87804704CAAA3CEC
:103CA000043AF080863DB8D4C23CCD6443AFC464CE
:103CB00043E1C3603C3AF080B7C8C3C23C36002140
:103CC000A5803E0DCD93383E0ACD9338AF32F080BB
:103CD0003A86803DC8F5AFCD9338F1C3D33C3A88DE
:103CE00080473AF080B8D4C23CD2183DD60ED2EC10
:103CF0003C2FC30D3DF5CDE845CD8838292BF1D6B5
:103D0000A8E5CA083D3AF0802F83D2183D3C473ED3
:103D100020CD933805C2113DE1CD163AC3673C3F33
:103D20005265646F2066726F6D2073746172740DDA
:103D30000A003A1281B7C2B435C1211F3DCD61439B
:103D4000C30537CDCC427EFE223E00328A80C25D62
:103D50003DCD2043CD88383BE5CD64433EE5CD09DC
:103D600037C1DA693A237EB72BC5CAB03B362CC3BC
:103D7000773DE52A2181F6AF321281E3C3833DCD41
:103D800088382CCD7E40E3D57EFE2CCAAB3D3A125E
:103D900081B7C2183E3E3FCD9338CD0937D1C1DA45
:103DA000693A237EB72BC5CAB03BD53AF280B7CA71
:103DB000D53DCD163A5747FE22CAC93D3A1281B7C2
:103DC00057CAC63D163A062C2BCD2343EB21E03DC6
:103DD000E3D5C3E33BCD163ACD7349E3CDC448E107
:103DE0002BCD163ACAEC3DFE2CC2323DE32BCD164C
:103DF0003AC27F3DD13A1281B7EBC23C3AD5B621E7
:103E0000073EC46143E1C93F457874726120696728
:103E10006E6F7265640D0A00CDB13BB7C2313E23AF
:103E20007E23B61E06CACE35235E2356EB220E81B4
:103E3000EBCD163AFE83C2183EC3AB3D110000C461
:103E40007E40221381CD6335C2C035F9D57E23F57E
:103E5000D5CDAA48E3E5CD1746E1CDC448E1CDBBB9
:103E600048E5CDE748E1C190CDBB48CA773EEB229B
:103E7000A1806960C3D239F92A13817EFE2CC2D693
:103E800039CD163ACD3F3ECD993EF6373AF2808F86
:103E9000B7E8C3CC35CD8838282B1600D50E01CD18
:103EA0009735CD103F2215812A1581C178FE78D42F
:103EB0008A3E7E1600D6B3DAD13EFE03D2D13EFE54
:103EC0000117AABA57DABA35220A81CD163AC3B514
:103ED0003E7AB7C2F93F7E220A81D6ACD8FE07D01F
:103EE0005F3AF2803DB37BCA574407835F21AC340D
:103EF000197856BAD023CD8A3EC501A83EC5434A9B
:103F0000CD9D4858514E234623C52A0A81C39C3E65
:103F1000AF32F280CD163A1E24CACE35DA7349CDBF
:103F2000B83AD2783FFE26C23C3FCD163AFE48CA88
:103F3000BD4DFE42CA394E1E02CACE35FEACCA1075
:103F40003FFE2ECA7349FEADCA673FFE22CA204318
:103F5000FEAACA5940FEA7CA8442D6B6D2893FCD2E
:103F6000953ECD883829C9167DCD9C3E2A1581E520
:103F7000CD9548CD8A3EE1C9CD7E40E5EB22298131
:103F80003AF280B7CCAA48E1C90600074FC5CD1662
:103F90003A79FE31DAB03FCD953ECD88382CCD8BC5
:103FA0003EEB2A2981E3E5EBCDEB45EBE3C3B83FDC
:103FB000CD5F3FE311733FD5010B33094E23666993
:103FC000E915FEADC8FE2DC814FE2BC8FEACC82BEB
:103FD000C9F6AFF5CD8A3ECDCC3AF1EBC1E3EBCDDE
:103FE000AD48F5CDCC3AF1C179214242C2F43FA3AC
:103FF0004F78A2E9B34F78B2E9210B403AF2801F23
:104000007A175F166478BAD0C3F93E0D4079B71FAE
:10401000C1D1F5CD8C3E214F40E5CAE748AF32F221
:1040200080D5CDA4447E23234E2346D1C5F5CDA80B
:1040300044CDBB48F157E17BB2C87AD601D8AFBBBB
:104040003CD0151D0ABE2303CA37403FC377483C06
:104050008FC1A0C6FF9FC37E48165ACD9C3ECD8A15
:104060003ECDCC3A7B2F4F7A2FCD4242C1C3A83EE2
:104070002BCD163AC8CD88382C017040C5F6AF322A
:10408000F18046CDB83ADABA35AF4F32F280CD166C
:104090003ADA9A40CDB83ADAA7404FCD163ADA9BD1
:1040A00040CDB83AD29B40D624C2B6403C32F280D2
:1040B0000F814FCD163A3A10813DCA6341F2C64096
:1040C0007ED628CA3B41AF321081E550592A238160
:1040D000CD8238112581CAAD472A1D81EB2A1B816B
:1040E000CD8238CAF940799623C2EE40789623CA29
:1040F0002D4123232323C3E040E1E3D5117B3FCDB2
:104100008238D1CA3041E3E5C50106002A1F81E5A6
:1041100009C1E5CD8635E1221F816069221D812B11
:104120003600CD8238C21F41D173237223EBE1C91F
:10413000322C81215635222981E1C9E52AF180E31B
:1041400057D5C5CDC03AC1F1EBE3E5EB3C577EFE58
:104150002CCA4141CD883829221581E122F1801EE7
:1041600000D511E5F52A1D813E19EB2A1F81EBCD03
:104170008238CA9B417EB923C27D417EB8235E232B
:104180005623C269413AF180B7C2C335F1444DCAE2
:10419000AD4796CAF9411E10C3CE35110400F1CACD
:1041A000E13A712370234FCD97352323220A817181
:1041B000233AF1801779010B00D2BE41C10371236C
:1041C0007023F5E5CD5849EBE1F13DC2B641F5422A
:1041D0004BEB19DAAF35CDA035221F812B3600CD40
:1041E0008238C2DC4103572A0A815EEB2909EB2B96
:1041F0002B73237223F1DA1D42474F7E2316E15EB3
:10420000235623E3F5CD8238D29641E5CD5849D1E6
:1042100019F13D444DC2FE412929C109EB2A1581FE
:10422000C92A1F81EB210000393AF280B7CA3D420A
:10423000CDA444CDA4432A9F80EB2A08817D934FCF
:104240007C9A41501E0021F280730690C383483A45
:10425000F08047AFC34342CDDA42CDCC4201B13BFF
:10426000C5D5CD883828CD7E40E5EB2B562B5EE1B9
:10427000CD8A3ECD883829CD8838B4444DE37123AA
:1042800070C31943CDDA42D5CD5F3FCD8A3EE35EA0
:104290002356237AB3CAC6357E23666FE52A238167
:1042A000E32223812A2781E52A2581E5212581D55D
:1042B000CDC448E1CD873E2BCD163AC2BA35E122B6
:1042C0002581E1222781E1222381E1C9E52AA1801C
:1042D000237CB5E1C01E16C3CE35CD8838A73E80FD
:1042E000321081B647CD8340C38A3ECD8A3ECD1180
:1042F0004ACD1F43CDA44401FF44C57E2323E5CD11
:104300007A43E14E2346CD1343E56FCD9744D1C99F
:10431000CD7A43210481E5772323732372E1C92BEE
:10432000062250E50EFF237E0CB7CA3543BACA35C4
:1043300043B8C22643FE22CC163AE323EB79CD13D1
:10434000431104812AF6802229813E0132F280CD78
:10435000C748CD823822F680E17EC01E1EC3CE350E
:1043600023CD1F43CDA444CDBB481C1DC80ACD930B
:1043700038FE0DCCCC3C03C36B43B70EF1F52A9F3E
:1043800080EB2A08812F4F06FF0923CD8238DA9867
:104390004322088123EBF1C9F11E1ACACE35BFF5BD
:1043A000017C43C52AF480220881210000E52A9F70
:1043B00080E521F880EB2AF680EBCD823801B54309
:1043C000C209442A1B81EB2A1D81EBCD8238CADC4D
:1043D000437E2323B7CD0C44C3C643C1EB2A1F81C0
:1043E000EBCD8238CA3244CDBB487BE509B7F2DB5E
:1043F00043220A81E14E0600090923EB2A0A81EBD8
:10440000CD8238CADC4301FB43C5F6807E23235EA0
:10441000235623F0B7C8444D2A0881CD82386069FD
:10442000D8E1E3CD8238E3E56069D0C1F1F1E5D5AB
:10443000C5C9D1E17DB4C82B462B4EE52B2B6E268A
:10444000000950592B444D2A0881CD8935E171234B
:104450007069602BC3A743C5E52A2981E3CD103FCE
:10446000E3CD8B3E7EE52A2981E5861E1CDACE351A
:10447000CD1043D1CDA844E3CDA744E52A0681EB76
:10448000CD8E44CD8E4421A53EE3E5C34143E1E317
:104490007E23234E23466F2C2DC80A120313C39884
:1044A00044CD8B3E2A2981EBCDC244EBC0D5505977
:1044B0001B4E2A0881CD8238C2C044470922088198
:1044C000E1C92AF6802B462B4E2B2BCD8238C022F9
:1044D000F680C9015242C5CDA144AF5732F2807E69
:1044E000B7C9015242C5CDD744CAE13A23235E235E
:1044F000561AC93E01CD1043CDEE452A068173C13F
:10450000C34143CD9E45AFE34FE57EB8DA11457810
:10451000110E00C5CD7A43C1E1E523234623666829
:10452000060009444DCD13436FCD9744D1CDA84427
:10453000C34143CD9E45D1D51A90C30745EB7ECDEF
:10454000A3450405CAE13AC51EFFFE29CA5645CD5A
:1045500088382CCDEB45CD883829F1E3010945C5D4
:104560003DBE0600D04F7E91BB47D843C9CDD7444E
:10457000CA8C465F23237E23666FE5194672E3C526
:104580007EFE24C28C45CDBD4DC39A45FE25C29703
:1045900045CD394EC39A45CD7349C1E170C9EBCDC4
:1045A000883829C1D1C543C9CDEE45328480CD8339
:1045B00080C35242CDD845C34B80CDD845F51E00AF
:1045C0002BCD163ACACE45CD88382CCDEB45C1CD82
:1045D0008380ABA0CACF45C9CDEB45328480324C35
:1045E00080CD88382CC3EB45CD163ACD873ECDC65D
:1045F0003A7AB7C2E13A2BCD163A7BC9CDCC3A1AFA
:10460000C35242CD873ECDCC3AD5CD88382CCDEBA8
:1046100045D112C921EA4ACDBB48C32646CDBB4885
:1046200021C1D1CD954878B7C83A2C81B7CAAD48D9
:1046300090D240462F3CEBCD9D48EBCDAD48C1D14B
:10464000FE19D0F5CDD24867F1CDEB46B4212981D2
:10465000F26646CDCB46D2AC462334CAC9352E01CC
:10466000CD0147C3AC46AF90477E9B5F237E9A57F0
:10467000237E994FDCD7466863AF4779B7C2994626
:104680004A54656F78D608FEE0C27A46AF322C8174
:10469000C905297A1757798F4FF29146785C45B74B
:1046A000CAAC46212C818677D28C46C878212C81D1
:1046B000B7FCBE4646237EE680A94FC3AD481CC06A
:1046C00014C00CC00E8034C0C3C9357E835F237E06
:1046D0008A57237E894FC9212D817E2F77AF6F9016
:1046E000477D9B5F7D9A577D994FC90600D608DAB2
:1046F000FA46435A510E00C3ED46C6096FAF2DC8A6
:10470000791F4F7A1F577B1F5F781F47C3FD4600F5
:1047100000008103AA561980F122768045AA3882CA
:10472000CD6C48B7EAE13A212C817E01358011F346
:104730000490F570D5C5CD2646C1D104CDC2472120
:104740000F47CD1D46211347CDB44B01808011008A
:1047500000CD2646F1CDE74901318011187221C103
:10476000D1CD6C48C82E00CD2A4879323B81EB224E
:104770003C810100005058217746E5218347E5E55B
:104780002129817E23B7CAAF47E52E081F6779D25A
:104790009D47E52A3C8119EBE13A3B81891F4F7A1D
:1047A0001F577B1F5F781F472D7CC28C47E1C94391
:1047B0005A514FC9CD9D48012084110000CDAD480C
:1047C000C1D1CD6C48CABD352EFFCD2A4834342B1B
:1047D0007E3257802B7E3253802B7E324F8041EBCE
:1047E000AF4F575F325A80E5C57DCD4E80DE003F2A
:1047F000D2FA47325A80F1F137D2C1E1793C3D1FFC
:10480000FAAD46177B175F7A175779174F29781734
:10481000473A5A8017325A8079B2B3C2E747E52146
:104820002C8135E1C2E747C3C93578B7CA4E487D08
:10483000212C81AE80471FA878F24D48C68077CAE8
:10484000AD47CDD248772BC9CD6C482FE1B7E1F207
:104850008C46C3C935CDB84878B7C8C602DAC93561
:1048600047CD2646212C8134C0C3C9353A2C81B7A7
:10487000C83A2B81FE2F179FC03CC9CD6C480688D3
:10488000110000212C814F70060023368017C3745D
:1048900046CD6C48F0212B817EEE8077C9EB2A292A
:1048A00081E3E52A2B81E3E5EBC9CDBB48EB222967
:1048B000816069222B81EBC92129815E2356234E19
:1048C000234623C911298106041A77132305C2C977
:1048D00048C9212B817E07371F773F1F2323777914
:1048E00007371F4F1FAEC978B7CA6C48217548E516
:1048F000CD6C4879C8212B81AE79F8CD01491FA92B
:10490000C92378BEC02B79BEC02B7ABEC02B7B9644
:10491000C0E1E1C9474F575FB7C8E5CDB848CDD230
:1049200048AE67FC38493E9890CDEB467C17DCBE1C
:10493000460600DCD746E1C91B7AA33CC00BC9215F
:104940002C817EFE983A2981D07ECD144936987B01
:10495000F57917CD7446F1C921000078B1C83E1031
:1049600029DA9641EB29EBD26E4909DA96413DC22C
:104970006049C9FE2DF5CA7F49FE2BCA7F492BCD60
:104980008C4647575F2F4FCD163ADAD049FE2ECAD4
:10499000AB49FE45C2AF49CD163ACDC13FCD163A1F
:1049A000DAF24914C2AF49AF935F0C0CCA8749E5EC
:1049B0007B90F4C849F2BE49F5CDB447F13CC2B290
:1049C00049D1F1CC9548EBC9C8F5CD5548F13DC961
:1049D000D557788947C5E5D5CD5548F1D630CDE7CF
:1049E00049E1C1D1C38749CD9D48CD7E48C1D1C3DE
:1049F00026467B0707830786D6305FC39D49E5219E
:104A00005235CD6143E1EBAF0698CD834821604339
:104A1000E5212E81E5CD6C483620F21F4A362D2344
:104A20003630CAD54AE5FC9548AFF5CDDB4A01439F
:104A30009111F84FCDE748B7E24C4AF1CDC949F59D
:104A4000C32E4ACDB447F13CF5CDDB4ACD14463CEC
:104A5000CD1449CDAD48010603F1813CFA684AFE08
:104A600008D2684A3C473E023D3DE1F511EE4A0559
:104A7000C2794A362E2336302305362ECCC248C59D
:104A8000E5D5CDB848E1062F047B965F237A9E5783
:104A900023799E4F2B2BD2884ACDCB4623CDAD48D0
:104AA000EBE17023C10DC2794A05CAB94A2B7EFEDB
:104AB00030CAAD4AFE2EC4C248F1CAD84A36452390
:104AC000362BF2C94A362D2F3C062F04D60AD2CBFC
:104AD0004AC63A237023772371E1C901749411F710
:104AE00023CDE748B7E1E2434AE900000080A08611
:104AF00001102700E803006400000A000001000024
:104B0000219548E3E9CD9D4821EA4ACDAA48C1D183
:104B1000CD6C4878CA534BF21E4BB7CABD35B7CAE5
:104B20008D46D5C579F67FCDB848F23B4BD5C5CD7E
:104B30003F49C1D1F5CDE748E17C1FE1222B81E15E
:104B4000222981DC004BCC9548D5C5CD2047C1D169
:104B5000CD6147CD9D48013881113BAACD61473ACF
:104B60002C81FE88D24848CD3F49C680C602DA482B
:104B700048F5210F47CD1746CD5847F1C1D1F5CDA6
:104B80002346CD954821934BCDC34B110000C14A1C
:104B9000C3614708402E9474704F2E776E02887A56
:104BA000E6A02A7C50AAAA7EFFFF7F7F00008081BA
:104BB00000000081CD9D48115F47D5E5CDB848CDB7
:104BC0006147E1CD9D487E23CDAA4806F1C1D13D84
:104BD000C8D5C5F5E5CD6147E1CDBB48E5CD264655
:104BE000E1C3CC4BCD6C48215E80FA454C217F80DF
:104BF000CDAA48215E80C886E6070600772387870E
:104C00004F09CDBB48CD61473A5D803CE6030600C5
:104C1000FE0188325D8021494C87874F09CD1746B8
:104C2000CDB8487B59EE4F4F36802B463680215CFD
:104C300080347ED6ABC23C4C770C151CCD77462118
:104C40007F80C3C448772B772B77C3204C68B1464D
:104C50006899E9926910D1756821A34CCD1746CDAA
:104C60009D4801498311DB0FCDAD48C1D1CDC2476D
:104C7000CD9D48CD3F49C1D1CD234621A74CCD1D67
:104C800046CD6C4837F28F4CCD1446CD6C48B7F505
:104C9000F4954821A74CCD1746F1D4954821AB4C4B
:104CA000C3B44BDB0F49810000007F05BAD71E86D5
:104CB0006426998758342387E05DA586DA0F4983F7
:104CC000CD9D48CD5F4CC1E1CD9D48EBCDAD48CDEC
:104CD000594CC3C047CD6C48FC004BFC95483A2C5E
:104CE00081FE81DAF24C0100815159CDC247211D6C
:104CF00046E521FC4CCDB44B21A34CC9094AD73B16
:104D000078026E847BFEC12F7C74319A7D843D5A7B
:104D10007DC87F917EE4BB4C7E6CAAAA7F00000018
:104D200081C9D7C93E0CC36D4ECDEB457B32878020
:104D3000C9CD873ECDCC3AEB228B80228D80EBC94A
:104D4000CDCC3AD5E146237EC34342CD873ECDCC80
:104D50003AD5CD88382CCD873ECDCC3AE37323723B
:104D6000E1C9CD8A3ECDCC3AC5212E817AFE00CA5A
:104D70007F4DCD9E4D78FE30CA7D4D702371237BD3
:104D8000CD9E4D7AFE00C28F4D78FE30CA914D7097
:104D9000237123AF772377C1212E81C3F14247E6E8
:104DA0000FFE0ADAA84DC607C6304F780F0F0F0F57
:104DB000E60FFE0ADAB94DC607C63047C9EB210037
:104DC00000CDD94DDAFA4DC3D04DCDD94DDAF14DE4
:104DD00029292929B56FC3CA4D131AFE20CAD94DF6
:104DE000D630D8FE0ADAED4DD607FE0AD8FE103FBF
:104DF000C9EB7A4BE5CD4242E1C91E26C3CE35CD83
:104E00008A3ECDCC3AC5212E8106110578FE01CA15
:104E10001E4E7B175F7A1757D20B4EC3244E7B175B
:104E20005F7A17573E30CE00772305C21E4EAF770C
:104E30002377C1212E81C3F142EB210000CD574ED3
:104E4000DA654ED63029B56FCD574ED2434EEB7A48
:104E50004BE5CD4242E1C9131AFE20CA574EFE303F
:104E6000D8FE323FC91E28C3CE35C30D32C3080059
:104E70000E01F7C93E00329280C31432F5A0C1B8CA
:104E80003E00C9CD9338C3C23CFFFFFFFFFFFFFFC9
:104E9000FFFFFFFFFFFFFFFFFFFFFFFFFFFFFFFF22
:104EA000FFFFFFFFFFFFFFFFFFFFFFFFFFFFFFFF12
:104EB000FFFFFFFFFFFFFFFFFFFFFFFFFFFFFFFF02
:104EC000FFFFFFFFFFFFFFFFFFFFFFFFFFFFFFFFF2
:10540000C39E5AC35054C3955AC3D35AC3D55AC323
:10541000BC55C3A856C3B756C3D456C33A57C339AD
:1054200058C34558C36258C39158C38D59C3BA591C
:10543000C3D159C35B5AC3665AC3675AC38B5A2137
:105440000081227E8022508036FF21B65ACDBC5585
:1054500021BF9E22588031008121C4802288802172
:10546000AD5ACDBC55CDDB58D2B454224280CD3E8E
:1054700056CA9154CDF054FA915422428023237E8F
:10548000FE20C29754CD2556C29D54237EA7C377D4
:1054900054CD8B5AC35654CD0555C377542A4280F8
:1054A000227280CDF654FA91540E72CD9B55CA7477
:1054B00054C37D54227480EB224A80EB7EFE2FC2BF
:1054C0000B55CDF054CD8B5A7EA7FA5654CDD354FC
:1054D000C3C55422428056235EE50E05CDD159E165
:1054E00023C3BC552A428023237EB7C2E85423C974
:1054F0002A7E802242807EA7F8EB2A4A80EB237E18
:10550000932B7E9AD0CDE454C3F3542A4A807AA7D1
:10551000FA9154B3CAC2542A50807E3CC29154CDF1
:10552000F054FA4A5546236E600E4ACD9B55C24A46
:1055300055CDE454EB2A4280EB0E50CD9B557E12A4
:105540002313C23955EB2B2250802A74801E037E10
:10555000B7CA95551C237EB7C25455572A50801997
:10556000E5EB2A5880CD3958D291542A5080EBE18E
:10557000225080EB232B7E121B0E42CD9B55C27511
:1055800055EB2A4A80EB722373EB2A74807E231337
:1055900012B7C28D55310081C3655406800ABDC063
:1055A000030ABCC92187803600E5210A00CD99583D
:1055B0007DC630E12B777BB2C2A955C9AF477E23A8
:1055C000B8CACA55CD0954C3BE55CD0C54D0CDD19F
:1055D0005AFE1BCA9154FE20C0C3D15AFE20CA25D0
:1055E000565797324A80324B80237E2B5FE6DF7A14
:1055F000C21156FE5DC2FE55CD2E59C33B56FE402C
:10560000C211562322468097110000CD4456C33B59
:1056100056FE22C21D5623CDBD55C33E56FE2FC297
:105620002956CD8B5A23C33E56227280CD6156CD6A
:10563000FE58CDCA552A4A807CB5C02A46807EA72E
:10564000C2DC55C9EB226A80EBCD5859216A80C370
:105650006159D523CD6D56CD4456D1C93E3DC328A1
:105660005A7E23E6DFCA5C56FE1DC26156CD8F56B8
:105670007EE6DFCA8956FE09CA8D56FE0CCA52560E
:10568000CDB1572A5A80C37056224680C923C9CD4E
:10569000DE58D0FE2DC29F5623CD8F56C39158FEA3
:1056A0002BC2AE5623CD8F567AA7FA9158C9FE2346
:1056B000C2BC5623CD8F567AA7C3D357FE25C2CB83
:1056C0005623CD8F56EB2A4E80EBC9FE27C2F256E9
:1056D00023CD8F56E5D52A528011093DCD4558136B
:1056E000EB225280EBE15A1600CD45585A1600E1E4
:1056F00013C9FE22C2FE561600235E2323C9FE24D0
:10570000C235571600CD1057DA2657CD06545FC95B
:10571000237ED630DA2457FE0AD8D607FE0ADA24CA
:1057200057FE10C93FC95FCD1057D0EB2929292951
:10573000EB83C32657FE3FC24457E5CDE15ACD6DFA
:1057400056E123C9FE28C24D5723C36D56CD975746
:10575000FE3ACA5E57CD78575E2356C36457CD686C
:105760005716005E2A7080C9CD86573A7680835FCF
:105770003A77808A57C3AA57FE28C2A157CD8657C9
:10578000EB29EBC36B57CDA1574E23666922768078
:105790002A708023C36D565E237EFE4157F29857D0
:1057A000C916807BE63FC602875F227080EB7CB51E
:1057B000C9D556235ED57BD63DCAC0573DC2C15719
:1057C00023CD8F56225A80EBD17AFE3DC2E157D1CC
:1057D000CD3958C204587BB7C20458110100F6FFF6
:1057E000C9FE3CC20A587BFE3DD1CAF857FE3EC2F4
:1057F000FE57CDD057C32558CD1C58C32558CD3999
:1058000058FADB57110000E600C9FE3EC22A587B59
:10581000FE3DD1C21C58CDFE57C32558CD3958FA8C
:105820000458CDD3577BEE015FC9D1FE2BC234584B
:10583000EB19EBC9FE2DC240587B955F7A9C57C986
:10584000FE2AC25D58D50E10110000E3CDC858E302
:10585000D25658EB19EB290DC24B58C1C9FE2FC2C5
:10586000285A06007CB7C27258B5C27B583E2FC377
:10587000285AF27B5804EBCD9158EB7AB7F2845852
:1058800005CD9158CD9958224E802A68803E00B8A7
:10589000C87A2F577B2F5F13C90E000C29D29B5853
:1058A000CDC958E5210000E3CD39583FDAB358EBB4
:1058B00019EBB7E37D176F7C1767E30DCAC558CDA9
:1058C000C858C3A858E1EBC9B77C1F677D1F6FC9D3
:1058D0007EFE3A37F0FE3037F83FC9CD835ACDD03F
:1058E00058D8EB2100001AD6304F060009444D135A
:1058F000EBCDD0583FD0EB29290929C3E6582A72AD
:1059000080D57EFE40C2495923235ECDA157D1CD1B
:105910003859D5CD3C59E1CDFE57C22959CD2E5924
:1059200006062188807E9077C906FCC322592E4640
:10593000CD35592E42CD3C59732372C94D2A8880EA
:105940005E23562322888069C9FE21C26F59D1EB9C
:10595000224A80EBCDAD57C8214280CD6159214606
:10596000805E23562A88802B722B73228880C9FE82
:105970003BC27F59D1CDAD57C0310081C39754FE92
:105980003EC28759D1EBE9FE2EC29959D153141565
:10599000C83E20CD0954C38F59FE26C2B459237E78
:1059A0002BFE3DC2B459D1CDAD57C02A7E802250C6
:1059B0008036FFC9FE24C2BE59C17BC30954FE3FD5
:1059C000C2F659237E2BFE28C2505A23CD8F564B48
:1059D000D1C5CDE459C17D81D68757FABC55CD8E4E
:1059E00059C3BC557AB7FAEC59C3A455CD9158CDDB
:1059F000E9592B362DC9FE3DC2105AD1EB227E80CB
:105A0000EB2100FF224A80CDF054225080C39154F4
:105A10002A7280CD9757FE3AC2215ACD6857D1736A
:105A2000C9CD7857D1C3385947CD8B5A3E3FCD09A0
:105A30005478CD09543E20CD09542A42803A8A80B8
:105A4000BEC24A5ACDBC55C39154CDD354C3915410
:105A5000FE3FCA615AFE24CA655AD1CDE459C3BC7F
:105A60005542CD675AD14378CD715A78E60FC37746
:105A70005AE6F00F0F0F0FFE0AFA7E5AC607C6301D
:105A8000C30954218A800649C3DD5A3E0DCD09540D
:105A90003E0AC30954CDD15AFE20D8C3D35A21009F
:105AA000800ED4AF77230DC2A35AC33F542A524568
:105AB0004144590D0A0047414D45383020666F7208
:105AC00020454D555A3830205665722E30310D0A1A
:105AD00000D7C9CFC9DFCADB5A37C9B7C90E0BF720
:105AE000C9CD835A78B7C0E53E307723AF77E1C997
:105AF000FFFFFFFFFFFFFFFFFFFFFFFFFFFFFFFFB6
:105B0000C3065BC3275B31809E211480220080CDB9
:105B1000B362116C6297CDA56211816297CDA562C7
:105B200011966297CDA56231809ECDB36211586205
:105B300097CDA562213B5B220280210000220880D4
:105B40002204803E3ECDA35BD511379DCDDA61CDD9
:105B50007F5C7CB5C1CA385C1B7C121B7D12C5D52D
:105B60007993F5CDF45BD5C27A5BD5CD125CC12AB1
:105B70000080CD1E5C6069220080C12A0080F1E5B2
:105B8000FE03CA275B856F3E008C6711009DCD3BED
:105B900061D22962220080D1CD295CD1E1CD1E5C89
:105BA000C3435BCDB56211379DCDC162CAA95BFE0F
:105BB0000ACAA95BB7CAA95BFE08CAD35BFE18CAAA
:105BC000EC5BCDB562CDCA621213FE0DC87BFE87B9
:105BD000C2A95B7BFE37CAA95B1B3E08CDB5623EFE
:105BE00020CDB5623E08CDB562C3A95BCDB3623EA0
:105BF00040C3A35B7CB7FA2262111480E52A0080BF
:105C00002BCD3B61E1D81A9547131A9CDA135C1B24
:105C1000B0C913131AFE0DC2135C13C3FC5BCD3B5A
:105C200061C81A021303C31E5C7892C2315C799377
:105C3000C81B2B1A77C3295C21865CCD7F5CD51AE3
:105C400013FE2ECA5C5C23BECA3F5C3E7F1BBEDADD
:105C5000635C23BED2525C23D1C33E5C3E7F23BE35
:105C6000D25E5C7E236EE67F67F1E9E3CD7F5CBEAA
:105C700023CA7B5CC54E060009C11B1323E3C91A66
:105C8000FE20C013C37F5C4C495354DE5052554E26
:105C9000DFCD4E4557DCE3425945DCE04E455854D4
:105CA000DDA24C4554DF9B494E505554DF3F4946D9
:105CB000DE3C474F544FDFBC474F535542DCF25256
:105CC000455455524EDD1452454DDE44464F52DD8B
:105CD0002F5052494E54DE7D53544F50DCECDF932D
:105CE0000E01F7CD0560211480220080CD0560C330
:105CF000275BCDF75DCD0E60D5CDF45BC223622A64
:105D00000280E52A0480E52100002208803922046F
:105D100080C3DC5FCD05602A04807CB5CA1B62F9B4
:105D2000E1220480E1220280D1CD205EC3EC5FCD70
:105D3000F75DCDA65F2B220880213E5DC33B5C54FE
:105D40004FDD45E21BCD0E60220C8021505DC33B30
:105D50005C53544550DD59DD5FCD0E60C3625D215B
:105D60000100220A802A0280220E80EB221080018C
:105D70000A002A0880EB6068393E097E23B6CA9B78
:105D80005D7E2BBAC27A5D7EBBC27A5DEB210000DC
:105D900039444D210A0019CD295CF92A1080EBC342
:105DA000EC5FCDA661DA1B62220680D5EB2A088063
:105DB0007CB5CA1C62CD3B61CAC55DD1CD205E2ACF
:105DC0000680C3AB5D5E23562A0A80E519EB2A08DC
:105DD000807323722A0C80F1B7F2DD5DEBCD356163
:105DE000D1DAF15D2A0E802202802A1080EBC3EC0A
:105DF0005FCD205EC3EC5F21A59DCD2961C139D265
:105E000029622A08807CB5CA1D5E2A1080E52A0E08
:105E100080E52A0C80E52A0A80E52A0880E5C5C9C4
:105E2000C1E12208807CB5CA3A5EE1220A80E12203
:105E30000C80E1220E80E1221080C5C9CD0E607C6D
:105E4000B5C2E35F210000CD145CD2DC5FC3275BE9
:105E5000CDDA61CD0560CDF45BDA275BCD685ECD30
:105E6000C162CDFC5BC3595E1A6F131A67130E042F
:105E7000CDF35E3E20CDB56297CDA562C90E06CDAD
:105E80006B5C3B06CDB362C3E35FCD6B5C0D06CDAF
:105E9000B362C3D35FCD6B5C2307CD0E604DC3A748
:105EA0005ECDC35EC3B85ECD6B5C2C06CDF25FC326
:105EB000955ECDB362C3EC5FCD0E60C5CDF35EC120
:105EC000C3A75ECD6B5C22053E22C3D45ECD6B5C66
